:020000040800F2
:100000003807002091010008C116000815150008E6
:10001000BD16000881040008E11600080000000079
:10002000000000000000000000000000C9160008E9
:100030008504000800000000C5160008CD16000861
:10004000AB010008AB010008AB010008AB010008E0
:10005000AB010008AB010008AB010008AB010008D0
:10006000AB010008AB010008AB010008AB010008C0
:10007000AB010008AB010008AB010008AB010008B0
:10008000AB010008AB010008AB010008AB010008A0
:10009000AB010008AB010008AB010008AB01000890
:1000A000AB010008AB010008AB010008AB01000880
:1000B000AB010008AB010008AB010008AB01000870
:1000C000AB010008AB010008AB010008AB01000860
:1000D000AB010008AB010008AB010008AB01000850
:1000E000AB010008AB010008AB01000800F002F80A
:1000F00000F03FF80AA090E8000C82448344AAF183
:100100000107DA4501D100F034F8AFF2090EBAE880
:100110000F0013F0010F18BFFB1A43F0010318473B
:10012000D02E0000F02E0000103A24BF78C878C10D
:10013000FAD8520724BF30C830C144BF04680C60ED
:10014000704700000023002400250026103A28BF35
:1001500078C1FBD8520728BF30C148BF0B60704739
:10016000642900F07D80002070471FB51FBD10B5C9
:1001700010BD00F04AF91146FFF7F7FF01F0A6FCA9
:1001800000F068F903B4FFF7F2FF03BC00F070F968
:100190000948804709480047FEE7FEE7FEE7FEE71B
:1001A000FEE7FEE7FEE7FEE7FEE7FEE70448054957
:1001B000054A064B70470000DD160008ED000008F8
:1001C00038010020380700203803002038030020C1
:1001D0000FB41CB5074B06AA7B44694600900598EE
:1001E00000F0FBF80020694600F00AF91CBC5DF83D
:1001F00014FB0000250200002DE9F0410E460446E4
:10020000002020622046E168884730B3252805D0C9
:10021000D4E901219047206A401CF2E7E1682046BA
:1002200000278847050018D0A5F14100192802D8F9
:1002300020354FF400673246294620462760FFF7F5
:100240008FFF40B1012804D0F61D26F007060836BE
:10025000D8E7361DD6E72846DAE7206ABDE8F08100
:100260002DE9F0410646002410687529314616A58F
:1002700010D0AFF30080002802DA404213A507E057
:1002800031688A0701D512A502E0490704D511A5F6
:10029000012401E0AFF3008000210A2206F12407C7
:1002A00009E0B0FBF2FCB0FBF2F302FB1C003030C3
:1002B00078541846491C0028F3D123462A46304674
:1002C000BDE8F04100F02AB8000000002D00000059
:1002D0002B0000002000000010B5431C02E010F8C5
:1002E000011B71B18107FAD14FF0013202C88C1A9B
:1002F0008C4314EAC211F9D0C01A0A0603D0C01EFA
:1003000010BDC01A10BD0A0401D0801E10BD090224
:10031000FCD0401E10BD7047704770472DE9F04774
:100320000D4699469246044600F124080168880665
:1003300004D5E06921F01001216000E00120A8420D
:1003400001DD471B00E00027A1697A1902EB0900D3
:10035000081AA0612078C00602D42046AFF30080BE
:10036000002608E0D4E901211AF806009047206A27
:10037000401C761C20624E45F4DB2078C0060AD56E
:100380002046AFF3008006E0D4E9012130209047F9
:10039000206A401C2062381EA7F10107F4DC07E048
:1003A000D4E9012118F805009047206A401C20621A
:1003B000281EA5F10105F3DC2046AFF3008020786C
:1003C000000602D50220BDE8F0870120FBE700000F
:1003D00001694A1C02610878704700B58FB0CDE909
:1003E00001310021059105497944CDE903101146F9
:1003F0006846FFF701FF0FB000BD0000E5FFFFFFFB
:100400000A6802F8010B0A607047754600F02CF884
:10041000AE4605006946534620F00700854618B0F1
:1004200020B5FFF7C3FEBDE820404FF000064FF0B7
:1004300000074FF000084FF0000BAC46ACE8C009D5
:10044000ACE8C009ACE8C009ACE8C00921F007017C
:100450008D46704710B50446AFF300802046BDE8D6
:100460001040FFF78FBE000000487047800000205A
:1004700001491820ABBEFEE72600020070470000CD
:10048000FEE7000070470000B0B5044600F026F912
:10049000054640F27000C2F200000078611C18BFEF
:1004A000044400BF00F01AF9401BA042FAD3B0BDCB
:1004B0002DE9F04F82B041F20042C4F201020E6811
:1004C0000423904208BF0323002E009300F0F6801F
:1004D00040F2004C4FF6FF7E0022C4F2010C0124D2
:1004E000C1F2100E4FF0000A4FF0000947E000BFC4
:1004F000012502F00C040F27A7402BEA070705FA95
:1005000004F43C4343F82640D1F804B040F20C45D3
:100510005FEACB23DCF8083054BF23EA080343EA40
:100520000803C4F20105CCF808302B685FEA8B247D
:1005300054BF23EA080343EA08032B605FEA8B34C5
:10054000DCF8043054BF23EA080343EA08035FEAF7
:10055000CB34CCF80430DCF800304FF0010454BF49
:1005600023EA080343EA0803CCF800300E680AF1D6
:10057000010A36FA0AF302F1040200F09F8004FA3D
:100580000AF816EA080FF1D04B68734512DC122BFB
:1005900056D8DFE803F0350B4549555555555555A7
:1005A000555555555555554D510000BFD1F80C9036
:1005B00046E000BF4FF6FF75C1F22105AB420FDCEC
:1005C0000025C1F21105AB421AD00025C1F2120577
:1005D000AB4215D00025C1F22105AB4210D02FE06F
:1005E0000025C1F22205AB420AD00025C1F2310537
:1005F000AB4205D00025C1F23205AB4220D100BF8D
:100600008B684BB1012B14BFC0F81480C0F8108068
:100610004FF0080914E000BF4FF0040910E000BFDC
:10062000CB6803F108090BE04FF0000908E000BFB8
:10063000CB6803F1040903E0CB6803F10C0900BFA8
:1006400013460546BAF1080F24BF203B04352E6837
:100650000F279F40BE4309FA03F333432B60CB7946
:10066000DB067FF583AF41F21804C4F2020423686D
:100670004FEA9A0643F001032360236840F6000422
:1006800003F001030193019BACF57E7353F826B090
:10069000C4F20104A0420FD040F60044C4F20104A9
:1006A000A0423FF425AF41F20004C4F20104009DD2
:1006B000A04208BF02251CE700251AE702B0BDE8EA
:1006C000F08F00008068084018BF012070470000CC
:1006D000002A08BF090401617047000040F2301091
:1006E000C2F200000068704740F2700040F2301122
:1006F000C2F20000C2F2000100780A6810440860EB
:100700007047000080B542F20000C4F202000168A8
:1007100041F010010160032000F072F80F2000F09A
:1007200005F800F027F8002080BD000070B540F209
:100730007006C2F2000640F278013278C2F200017F
:100740004FF47A730968B3FBF2F20446B1FBF2F19D
:10075000084600F01FFB0F2C4FF0010508D838B9F0
:100760004FF0FF3021460022002500F01DF8746094
:10077000284670BD82B041F21800C4F20200016840
:1007800041F001010160016801F00101019101994D
:10079000416841F080514160406800F08050009015
:1007A000009802B07047000010B54EF60C5CCEF217
:1007B000000CDCF80030C3F3022E8EF00704042C8A
:1007C00028BF0424BEF103034FF0FF3E0EFA04F4E9
:1007D00038BF0023A14399400EFA03F39A43114313
:1007E00000F00F02043A624409010C3200F1604348
:1007F000B0F1FF3FC8BF03F56442117010BD0000A7
:100800004EF60C51CEF200010A684FF6FF031A4073
:1008100060F30A2242F0806040F0FD70086070478B
:100820002DE9F04381B0002800F0858042F20008F5
:10083000C4F202080446D8F800000D4600F0070094
:1008400088420CD2D8F8000020F007002843C8F8EE
:100850000000D8F8000000F00700A8426BD1206823
:1008600041F204098107C4F2020917D5410705D5F1
:10087000D9F8001041F4E061C9F80010010705D56E
:10088000D9F8001041F46051C9F80010D9F80010EF
:10089000A26821F0F0011143C9F80010C00741D14E
:1008A000D8F8000000F00700A8420CD9D8F80000E2
:1008B00020F007002843C8F80000D8F8000000F036
:1008C0000700A84237D12068410707D5D9F80010A2
:1008D000E26821F4E0611143C9F80010000708D56F
:1008E000D9F80000216920F4605040EAC100C9F83D
:1008F0000000D9F8002002F00C00082841F2002086
:10090000C0F27A0050D142F6BE73C2F38341C0F602
:100910000003595CD2033BD440F60010C0F23D0006
:10092000484341E0606802280AD001282AD159F8DA
:10093000041C890308D4012001B0BDE8F08300BF86
:1009400059F8041C8901F6D5D9F8001021F00301EB
:100950000843C9F80000FFF7C1FE064641F2883798
:10096000D9F80000616800F00C00B0EB810F97D05F
:10097000FFF7B4FE801BB842F2D9032001B0BDE8F6
:10098000F08300BF59F8041C8907D4D5DCE700BF09
:10099000D9F8002042F6BC73C2F34042C0F600030F
:1009A0009A5C4843B0FBF2F0D9F8001042F6AC7202
:1009B000C1F30311C0F60002515C40F2780220FA44
:1009C00001F140F27400C2F200000068C2F20002BD
:1009D0001160FFF7ABFE002001B0BDE8F08300001E
:1009E0002DE9F04182B0002868D00446007841F239
:1009F0000006C007C4F2020625D0706800F00C00A3
:100A000004281BD0706800F00C00082802D1706820
:100A1000C00313D46068002800F06881B0F5A02FEF
:100A200000F07C81B0F5803F00F07C81306820F4DC
:100A300080303060306820F4802076E130688003B8
:100A400001D56068D0B32078800718D5706810F0A1
:100A50000C0F07D0706800F00C0008286ED1706889
:100A6000C0036BD43068800702D52069012825D1E6
:100A70003068616920F0F80040EAC10030602078F9
:100A800000071FD42078400732D4E56995B170681B
:100A900000F00C00082840F08F80012D0ED0706807
:100AA000216A00F480328A4208D1616A00F4701031
:100AB000884203D1002002B0BDE8F081012002B0DD
:100AC000BDE8F081A069002862D00020C4F2422075
:100AD0000121C0F88014FFF701FE0546706A800707
:100AE00000F18C80FFF7FAFD401B0228F6D92AE1BD
:100AF000F06910F0805808D1F06940F08050F06142
:100B0000F06900F080500090009847F20007C4F2AE
:100B100000073868C00529D4386840F48070386010
:100B2000FFF7DCFD054600BF3868C0051ED4FFF79F
:100B3000D5FD401B6428F7D905E100BF20690028D6
:100B400040F20000C4F2422000F0828001210160E6
:100B5000FFF7C4FD054600BF306880073FF588AF4A
:100B6000FFF7BCFD401B0228F6D9ECE0E068002846
:100B700000F08080052800F09780012800F0988020
:100B8000306A20F001003062306A20F0040092E008
:100B90000020C4F242200021C0F88014FFF79EFD1F
:100BA000054600BF706A80077FF56CAFFFF796FDC2
:100BB000401B0228F6D9C6E00027C4F242270020D5
:100BC0003866FFF78BFD022D05460BD1306880019A
:100BD00040F1BE80FFF782FD401B02284FF003006A
:100BE000F4D968E7306880017FF564AFFFF776FDE0
:100BF000401B02284FF00300F4D95CE740F2780074
:100C0000C2F20000006844F6D351C1F26201A0FBB9
:100C10000101480A019000BF00BF0198411E002851
:100C200001913FF42FAF00BF0198411E00280191B0
:100C30003FF428AF00BF0198411E002801913FF406
:100C400021AF00BF0198411E00280191E4D119E7AE
:100C500000210160FFF742FD054600BF30688007B4
:100C60007FF50DAFFFF73AFD401B02284FF0030060
:100C7000F4D920E7306A20F001003062306A20F0B9
:100C800004003062FFF72AFD054641F2883700BFB5
:100C9000306A800720D5FFF721FD401BB8424FF096
:100CA0000300F5D907E700BF306A40F00400306266
:100CB000306A40F001003062FFF710FD054641F256
:100CC000883700BF306A800706D4FFF707FD401B56
:100CD000B842F7D937E000BFB8F1000F7FF4D5AEC6
:100CE000F06920F08050F061CFE600BF306820F45A
:100CF00080303060306820F480203060FFF7EEFCF8
:100D0000054600BF306880037FF59DAEFFF7E6FC27
:100D1000401B64284FF00300F4D9CCE6306840F45F
:100D200080203060306840F480303060FFF7D6FCBF
:100D3000054600BF306880033FF585AEFFF7CEFC67
:100D4000401B6428F6D9032002B0BDE8F08100BF43
:100D5000206AB0F5803F05D17168A26821F40031A6
:100D6000114371607168626A21F474111043084381
:100D7000706001203866FFF7B1FC044630688001DE
:100D80003FF598AEFFF7AAFC001B02284FF00300C6
:100D9000F4D990E6411E0020B0EB116F1CBF01207A
:100DA00070474EF21002CEF2000251604EF623510F
:100DB000CEF20001F0230B700721906011607047A4
:100DC00010B590F83C20012A4FF0020233D080F891
:100DD0003D200268D2F804E0D2F808C00C682EF07A
:100DE0007003234340F2FF74C4F20004A242536034
:100DF0000ADCB2F1804F13D040F20043C4F200038A
:100E00009A420DD011E000BF42F60043C4F2010344
:100E10009A4205D040F60003C4F200039A4204D17E
:100E200049682CF08003194391600121002280F869
:100E30003D1080F83C20104610BD0000002804BF83
:100E40000120704710B5044690F83D0028B90020F5
:100E500084F83C00204600F067F8022084F83D004A
:100E6000206840F2FF730268C4F2000342F6004CAF
:100E70009842C4F2010C15DCB0F1804F1AD040F258
:100E80000041C4F20001884214D0984218DCB0F14D
:100E9000804F1DD040F20041C4F20001884217D0BB
:100EA0001AE000BF604505D040F60001C4F2000121
:100EB0008842EAD1A16822F070020A439842E6DD36
:100EC000604505D040F60001C4F20001884203D11C
:100ED000216922F440720A43A36922F08001D4F808
:100EE00004E0E268194360450160C262C0F828E08E
:100EF00002D16169CCF8301001214161002084F8F1
:100F0000461084F83E1084F83F1084F8401084F8AE
:100F1000411084F8421084F8431084F8441084F897
:100F2000451084F83D1010BD81B00068B0F1804FCD
:100F300002D001B0704700BF41F21C00C4F20200B1
:100F4000016841F001010160006800F001000090BB
:100F5000009801B07047000080B590F83C20012A4D
:100F60004FF0020200F0C28080F83D20D0F800C0AF
:100F70004FF67772DCF8083023EA0202CCF808203A
:100F80000B684F2B28DC1F2B44DD202B45D0302B4A
:100F900043D0402B40F0AC80D1F804E0C968DCF8C5
:100FA0002030DCF8202022F00102CCF82020DCF8F0
:100FB000182022F0F00242EA011123F00A0242EA6C
:100FC0000E02CCF81810CCF82020DCF8081041F004
:100FD000470121F0300180E06F2B27DDB3F5005F82
:100FE00048D0B3F5805F7AD0702B40F08180D1E992
:100FF00001E3C968DCF8082043EA0E0322F47F42CB
:1010000043EA01211143CCF80810DCF8081041F044
:10101000770162E00BB1102B6AD1DCF8081021F0E7
:101020007001194341F0070157E000BF502B35D044
:10103000602B5DD1D1F804E0C968DCF82030DCF821
:10104000202022F01002CCF82020DCF8182022F416
:10105000704242EA013123F0A00242EA0E12CCF8BB
:101060001810CCF82020DCF8081041F0670121F0BE
:10107000100132E0D1E901E3C968DCF8082043EA55
:101080000E0322F47F4243EA01211143CCF80810F9
:10109000DCF8081041F480411FE000BFD1F804E003
:1010A000C968DCF82030DCF8202022F00102CCF8FE
:1010B0002020DCF8182022F0F00242EA011123F08F
:1010C0000A0242EA0E02CCF81810CCF82020DCF814
:1010D000081041F0570121F02001CCF8081000223F
:1010E000012180F83D10002180F83C10104680BDA1
:1010F0000122F5E780B586B000680021B0F1804F8D
:10110000049101D006B080BD41F21800C4F2020083
:10111000016841F004010160006802A900F00400C8
:10112000019001980320029002200390059040F660
:101130000000C4F20100FFF7BBF906B080BD00005B
:101140002DE9F04390F83C30012B04BF0220BDE8AC
:10115000F0834FEAB202032A3CD8DFE802F00343EF
:101160007FB900BF036842F600461D6A1A6AC4F2DE
:10117000010622F001021A621A465C6852F818CF82
:10118000B3428E68D1F800E025F0020545EA060575
:101190000CD1CE68D1E9057824F4407425F00C0513
:1011A00026F004063C43354344EA08042CF0730758
:1011B00047EA0E075C609F614F6809695F631D62C3
:1011C0009F6947F008079F619F6927F004079F61A7
:1011D000AEE000BF0121002280F83C200846BDE8B7
:1011E000F08300BF036842F600461D6A1A6AC4F223
:1011F000010622F010021A621A46D3F804C052F80F
:10120000184FB3428E68D1F800E025F0200545EA7A
:1012100006150FD1CE68D1E905986FF0400707EAAF
:1012200006162CF4406725F0C00547EA89073543C8
:1012300047EA880C24F4E64444EA0E27C3F804C0C5
:101240009F614F6809699F631D629F6947F400674A
:101250009F619F6927F480679F6168E0036842F699
:1012600000461D6A1A6AC4F2010622F480721A62EC
:101270001A46D3F804C052F81CEFB3428E680C68CB
:1012800025F4007545EA06250FD1CE68D1E9059809
:10129000360240F2FF47BE432CF4405725F4406528
:1012A00047EA0917354347EA081C2EF0730727431E
:1012B000C3F804C0DF614F680969DF631D62DF693D
:1012C00047F00807DF61DF6927F00407DF612FE0DF
:1012D000036842F60047D3F820C01A6AC4F2010737
:1012E00022F480521A621A465C6852F81C5FD1F8E8
:1012F00000E08E68BB4204D14F6924F4804444EA84
:1013000087142CF4005747EA063725F4E64646EAE8
:101310000E265C60DE614E6809691E641F62DF692B
:1013200047F40067DF61DF6927F48067DF61090246
:101330001368194311600021002280F83C20084600
:10134000BDE8F083002804BF0120704710B50446B3
:1013500090F83D0028B9002084F83C00204600F0B9
:1013600067F8022084F83D00206840F2FF730268AD
:10137000C4F2000342F6004C9842C4F2010C15DCA2
:10138000B0F1804F1AD040F20041C4F2000188420F
:1013900014D0984218DCB0F1804F1DD040F20041CB
:1013A000C4F20001884217D01AE000BF604505D0A2
:1013B00040F60001C4F200018842EAD1A16822F09F
:1013C00070020A439842E6DD604505D040F6000110
:1013D000C4F20001884203D1216922F440720A4319
:1013E000A36922F08001D4F804E0E2681943604563
:1013F0000160C262C0F828E002D16169CCF8301007
:1014000001214161002084F8461084F83E1084F8E0
:101410003F1084F8401084F8411084F8421084F89A
:10142000431084F8441084F8451084F83D1010BD32
:101430007047000041B1082910D0042914BF00F101
:10144000410200F13F020BE090F83E20012A1CBF50
:1014500001207047022280F83E2013E000F1400294
:101460001278012A1CBF012070470222082907D0E8
:10147000042914BF80F8412080F83F2002E000BF1B
:1014800080F84020006801F01F010122036A8A40B1
:1014900023EA02010162036A42F64441C4F20101F7
:1014A0001A43A1F14403984202620FD040F2FF7147
:1014B000C4F20001884213DCB0F1804F1CD040F22E
:1014C0000041C4F20001884216D01CE00A6842F4D0
:1014D00000420A6040F2FF71C4F200018842EBDD75
:1014E00042F60041C4F20101884205D040F60001F5
:1014F000C4F20001884206D1816801F00701062983
:1015000004BF00207047016841F001010160002024
:1015100070470000FEE700002DE9F04F85B041F272
:101520001800C4F20200016840F6004841F00401CE
:1015300001600168C4F2010801F004010191019900
:10154000016808F5806641F008010160016801AD9D
:1015500001F008010191019901684FF0010941F082
:10156000100101600068002400F010000190019853
:101570004FF480400190032730462946CDF808906B
:1015800003940497FEF794FF4FF4004B304629462E
:10159000CDE901B9CDE90347FEF78AFF4FF4005AC0
:1015A00030462946CDE901A9CDE90347FEF780FF82
:1015B00030464FF400510022FFF78AF84FF4805074
:1015C000CDE9010940462946CDE90347FEF770FF02
:1015D00040462946CDE901A9CDE90347FEF768FF5A
:1015E0004FF48040CDE9010940462946CDE9034743
:1015F000FEF75EFF40462946CDE901B9CDE9034734
:10160000FEF756FF332000F0A1F9322000F09EF9DA
:10161000282000F09BF9012000F098F90C2000F040
:1016200095F9062000F092F905B0BDE8F08F0000B2
:10163000002918BF403040F08000C0B200F086B9E9
:1016400070B584B002460FA10DF10500FEF7C0FD94
:101650009DF80500A0B100F0D9F90DF10504204670
:10166000FEF73AFE02280BD301260125A05D00F00B
:10167000CDF901352046EEB2FEF72EFEB042F5D888
:1016800004B070BD2564000070B50446007898B1C0
:1016900000F0BCF92046FEF71FFE022838BF70BDDF
:1016A00001260125A05D00F0B1F901352046EEB21A
:1016B000FEF712FEB042F5D870BD0000FEE7000054
:1016C000FEE70000704700007047000080B5FFF79C
:1016D0000BF8BDE8804000F007B80000704700003C
:1016E000FEE700007047000040F2E000C2F2000098
:1016F00001680131016041680131416070470000BB
:10170000B0B540F2E004C2F20004216822680D186E
:10171000AA4228BFB0BD00BFFFF7E4FF2068A8427F
:10172000FAD3B0BD70B540F2E00C40F27801C2F2DD
:10173000000CC2F20001DCF80020096844F6D35323
:10174000C1F262034EF2180EA1FB0314CEF2000E9A
:10175000DEF8001048F63963C1EB9411C3F6E303D9
:10176000A1FB03154FF47A7102FB0102A00902EB01
:10177000151218E0DCF80040DEF800504C43451B21
:10178000A5FB035604EB1614944228BF70BDDCF889
:101790000040DEF800504C43451BA5FB035604EB0C
:1017A0001614944217D2DCF80040DEF800504C4387
:1017B000451BA5FB035604EB161494420BD2DCF830
:1017C0000040DEF800504C43451BA5FB035604EBDC
:1017D00016149442CED370BD2DE9F04F83B0044669
:1017E0003420C4F200004EF65F2140F60C05016083
:1017F0004160002001210022C4F201050292FFF79E
:1018000017FF42F6D970C0F60000FFF73DFF0A202F
:101810000121FFF70DFF0020FFF712FF4FF4C87002
:1018200040F200084443A5F10C06C2F200084FF054
:10183000000A4FF0000901964FE000BF002862D077
:10184000002707E009F101091FFA89F0844207F136
:10185000010758D3082F3FD008EB0706B079296855
:101860000AF1010A41EA80002860B8F802001FFA74
:101870008AFBFFF745FFB079296821EA80002860DC
:1018800000200021FFF7D4FE42F6E370C0F600000E
:10189000FFF7FAFE0A200021FFF7CAFE1FFA89F0BF
:1018A000FFF7CEFEBBF5C87FCCD1029E0020012100
:1018B00001364FF0000AFFF7BBFE42F6D970C0F6C2
:1018C0000000FFF7E1FE0A200121FFF7B1FEB0B2F0
:1018D0000296FFF7B5FEB5E7019E30464FF4007162
:1018E000FEF7F0FE834630464FF48061FEF7EAFED5
:1018F000074630464FF48051FEF7E4FEBBF1000F7F
:1019000018BF002F9AD103B0BDE8F08FB0B50446E0
:10191000002001210125FFF78BFE42F6CE70C0F6B4
:101920000000FFF7B1FE0A200121FFF781FE4FF40E
:10193000B47048F21F516043C5F2EB11A0FB0101E6
:1019400005EBD120BDE8B040FFF77ABE70B541F29B
:101950000004C4F20104054620464FF480410022F1
:10196000FEF7B6FE40F25806C2F20006B0683188B3
:10197000C5F30012FEF7ACFEF0687188C5F34012A3
:10198000FEF7A6FE3069B188C5F38012FEF7A0FE0F
:101990007069F188EA09FEF79BFE20464FF400418A
:1019A0000122FEF795FE0120FEF76EFD20464FF462
:1019B00000410022FEF78CFEB068318805F001027C
:1019C000FEF786FEF0687188C5F34002FEF780FEE0
:1019D0003069B188C5F38002FEF77AFE7069F1883C
:1019E000C5F3C002FEF774FE20464FF40041012209
:1019F000FEF76EFE0120FEF747FD20464FF4004142
:101A00000022BDE87040FEF763BE000070B541F2F1
:101A10000004C4F20104054620464FF4804101222F
:101A2000FEF756FE40F25806C2F20006B068318852
:101A3000C5F30012FEF74CFEF0687188C5F3401242
:101A4000FEF746FE3069B188C5F38012FEF740FE0E
:101A50007069F188EA09FEF73BFE20464FF4004129
:101A60000122FEF735FE0120FEF70EFD20464FF461
:101A700000410022FEF72CFEB068318805F001021B
:101A8000FEF726FEF0687188C5F34002FEF720FEDF
:101A90003069B188C5F38002FEF71AFE7069F188DB
:101AA000C5F3C002FEF714FE20464FF400410122A8
:101AB000FEF70EFE0120FEF7E7FC20464FF4004142
:101AC0000022BDE87040FEF703BE000092B0FEF7B2
:101AD00019FEFFF721FD00240120CDE90B44CDE9DB
:101AE00009440A90102002250B9006A8CDE907446E
:101AF0000695CDE90D540F94FEF772FF20B1EFF378
:101B0000108072B6FEE700BF0F20CDE9010501A8E5
:101B10000021CDE903440594FEF782FE20B1EFF3E6
:101B2000108072B6FEE700BF41F21800C4F2020056
:101B3000016840F6000441F0040101600068C4F24D
:101B4000010400F004000690069820463C21002283
:101B50003C250026FEF7BCFD069506AD01274FF09B
:101B6000020820462946CDE90776CDF82480FEF705
:101B70009FFC4FF4F05006A9C1C120462946FEF74C
:101B800097FC4FF40060CDE9060704F58060294614
:101B9000CDE90868FEF78CFC40F2E800C2F20000D4
:101BA0004FF080414EF65F220496CDE90266CDE902
:101BB0001066CDE90B66CDE90966C0E90016C0E9FB
:101BC000026206618661FFF739F928B1EFF31080F0
:101BD00072B600BFFEE700BF4FF48050019040F2A4
:101BE000E800C2F2000001A9FFF7B6F920B1EFF357
:101BF000108072B6FEE700BF40F2E800C2F20000BB
:101C0000FFF7A0FB20B1EFF3108072B6FEE700BF34
:101C100040F2E800C2F2000010A9FFF7D1F828B1A5
:101C2000EFF3108072B600BFFEE700BF60200690A1
:101C30004FF4FA600790002008900A9040F2E80004
:101C4000C2F2000006A90022FFF77AFA20B1EFF3F2
:101C5000108072B6FEE700BF40F2E800C2F200005A
:101C600006A90422FFF76CFA20B1EFF3108072B6D8
:101C7000FEE700BF40F2E805C2F200052846FFF784
:101C800039FA28460021FFF7D5FB28460421FFF743
:101C9000D1FB02E0012000F0F1FE20464FF400717C
:101CA000FEF710FD074620464FF48061FEF70AFD5F
:101CB000054620464FF40061FEF704FD0646204627
:101CC0004FF48051FEF7FEFC002FE3D075B38EB3C6
:101CD0000028E2D11E2000F031F84FF4FA60FFF73F
:101CE0000FFD3C2000F02AF84FF4FA60FFF708FDE2
:101CF0002D2000F023F84FF4FA60FFF701FDE120FA
:101D000000F01CF84FF4FA60FFF7FAFC4FF4B470DF
:101D100000F014F84FF4FA60FFF7F2FC5A2000F0DC
:101D20000DF84FF4FA60FFF7EBFCB6E7012000F086
:101D3000F1FFB2E70120FFF74FFDAEE72DE9F04FCD
:101D400081B04FF4C851484346F61741C008C1F26C
:101D5000C161A0FB010140F2340AC4F2000A4EF650
:101D60006020CAF80000002040F20004CAF8040015
:101D7000C2F2000440F60C05A27BC4F20105A0EB00
:101D8000910B4FF08008A5F10C092A6000F05CBEB1
:101D9000002800F06F86E07B2860E08ACAF8040023
:101DA000A088FFF7BFFC0BEB08067F2E00F06286D1
:101DB000E07B2860208BCAF80400A088FFF7B2FC03
:101DC0007E2E00F05786E07B2860608BCAF8040006
:101DD000A088FFF7A7FC7D2E00F04C86E07B2860F2
:101DE000A08BCAF80400A088FFF79CFC7C2E00F0B2
:101DF0004186E07B2860E08BCAF80400A088FFF7EA
:101E000091FC7B2E00F03686E07B2860208CCAF89F
:101E10000400A088FFF786FC7A2E00F02B86E07B7A
:101E20002860608CCAF80400A088FFF77BFC792E3C
:101E300000F02086E07B2860A08CCAF80400A0880F
:101E4000FFF770FC782E00F01586E07B2860E08CB0
:101E5000CAF80400A088FFF765FC772E00F00A8618
:101E6000E07B2860208DCAF80400A088FFF75AFCA8
:101E7000762E00F0FF85E07B2860608DCAF80400B4
:101E8000A088FFF74FFC752E00F0F485E07B2860FA
:101E9000A08DCAF80400A088FFF744FC742E00F05F
:101EA000E985E07B2860E08DCAF80400A088FFF790
:101EB00039FC732E00F0DE85E07B2860208ECAF8A6
:101EC0000400A088FFF72EFC722E00F0D385E07B83
:101ED0002860608ECAF80400A088FFF723FC712EEA
:101EE00000F0C885E07B2860A08ECAF80400A088B6
:101EF000FFF718FC702E00F0BD8500200121A8F12D
:101F00007007FFF795FB42F6CE70C0F60000FFF7B2
:101F1000BBFB0A200121FFF78BFB4FF69070384086
:101F20004FF4B471484348F21F51C5F2EB11A0FBC6
:101F30000101012000EBD120FFF782FB207C28600B
:101F4000E08ECAF80000A088FFF7ECFB6F2E00F0CF
:101F50009185207C2860208FCAF80000A088FFF7B8
:101F6000E1FB6E2E00F08685207C2860608FCAF829
:101F70000000A088FFF7D6FB6D2E00F07B85207C4B
:101F80002860A08FCAF80000A088FFF7CBFB6C2E5A
:101F900000F07085207C2860E08FCAF80000A088DF
:101FA000FFF7C0FB6B2E00F06585207C2860B4F83D
:101FB0004000CAF80000A088FFF7B4FB6A2E00F0CA
:101FC0005985207C2860B4F84200CAF80000A08837
:101FD000FFF7A8FB692E00F04D85207C2860B4F83F
:101FE0004400CAF80000A088FFF79CFB682E00F0B0
:101FF0004185207C2860B4F84600CAF80000A0881B
:10200000FFF790FB672E00F03585207C2860B4F840
:102010004800CAF80000A088FFF784FB662E00F095
:102020002985207C2860B4F84A00CAF80000A088FE
:10203000FFF778FB652E00F01D85207C2860B4F842
:102040004C00CAF80000A088FFF76CFB642E00F07B
:102050001185207C2860B4F84E00CAF80000A088E2
:10206000FFF760FB632E00F00585207C2860B4F844
:102070005000CAF80000A088FFF754FB622E00F061
:10208000F984207C2860B4F85200CAF80000A088C7
:10209000FFF748FB612E00F0ED84207C2860B4F847
:1020A0005400CAF80000A088FFF73CFB602E00F047
:1020B000E18400200121A8F16007FFF7B9FA42F698
:1020C000CE70C0F60000FFF7DFFA0A200121FFF70B
:1020D000AFFA4FF6A07038404FF4B471484348F25D
:1020E0001F51C5F2EB11A0FB0101012000EBD12033
:1020F000FFF7A6FA607C2860E08ACAF80000A08892
:10210000FFF710FB5F2E00F0B584607C2860208B09
:10211000CAF80000A088FFF705FB5E2E00F0AA8435
:10212000607C2860608BCAF80000A088FFF7FAFA8C
:102130005D2E00F09F84607C2860A08BCAF80000B0
:10214000A088FFF7EFFA5C2E00F09484607C286092
:10215000E08BCAF80000A088FFF7E4FA5B2E00F0DD
:102160008984607C2860208CCAF80000A088FFF772
:10217000D9FA5A2E00F07E84607C2860608CCAF800
:102180000000A088FFF7CEFA592E00F07384607C1F
:102190002860A08CCAF80000A088FFF7C3FA582E68
:1021A00000F06884607C2860E08CCAF80000A08899
:1021B000FFF7B8FA572E00F05D84607C2860208D10
:1021C000CAF80000A088FFF7ADFA562E00F052843E
:1021D000607C2860608DCAF80000A088FFF7A2FA32
:1021E000552E00F04784607C2860A08DCAF800005E
:1021F000A088FFF797FA542E00F03C84607C28609A
:10220000E08DCAF80000A088FFF78CFA532E00F08A
:102210003184607C2860208ECAF80000A088FFF717
:1022200081FA522E00F02684607C2860608ECAF805
:102230000000A088FFF776FA512E00F01B84607C26
:102240002860A08ECAF80000A088FFF76BFA502E15
:1022500000F0108400200121A8F15007FFF7E8F9F1
:1022600042F6CE70C0F60000FFF70EFA0A200121F8
:10227000FFF7DEF94FF6B07038404FF4B4714843C1
:1022800048F21F51C5F2EB11A0FB0101012000EB48
:10229000D120FFF7D5F9A07C2860E08ECAF80400B1
:1022A000A088FFF73FFA4F2E00F0E483A07C28605F
:1022B000208FCAF80400A088FFF734FA4E2E00F0F1
:1022C000D983A07C2860608FCAF80400A088FFF73B
:1022D00029FA4D2E00F0CE83A07C2860A08FCAF88A
:1022E0000400A088FFF71EFA4C2E00F0C383A07CE8
:1022F0002860E08FCAF80400A088FFF713FA4B2E7D
:1023000000F0B883A07C2860B4F84000CAF804004C
:10231000A088FFF707FA4A2E00F0AC83A07C286063
:10232000B4F84200CAF80400A088FFF7FBF9492E70
:1023300000F0A083A07C2860B4F84400CAF8040030
:10234000A088FFF7EFF9482E00F09483A07C286066
:10235000B4F84600CAF80400A088FFF7E3F9472E56
:1023600000F08883A07C2860B4F84800CAF8040014
:10237000A088FFF7D7F9462E00F07C83A07C286068
:10238000B4F84A00CAF80400A088FFF7CBF9452E3C
:1023900000F07083A07C2860B4F84C00CAF80400F8
:1023A000A088FFF7BFF9442E00F06483A07C28606A
:1023B000B4F84E00CAF80400A088FFF7B3F9432E22
:1023C00000F05883A07C2860B4F85000CAF80400DC
:1023D000A088FFF7A7F9422E00F04C83A07C28606C
:1023E000B4F85200CAF80400A088FFF79BF9412E08
:1023F00000F04083A07C2860B4F85400CAF80400C0
:10240000A088FFF78FF9402E00F0348300200121CF
:10241000A8F14007FFF70CF942F6CE70C0F60000B5
:10242000FFF732F90A200121FFF702F94FF6C070D9
:1024300038404FF4B471484348F21F51C5F2EB11D4
:10244000A0FB0101012000EBD120FFF7F9F8E07CAF
:102450002860E08ACAF80400A088FFF763F93F2EDD
:1024600000F00883E07C2860208BCAF80400A08874
:10247000FFF758F93E2E00F0FD82E07C2860608B6B
:10248000CAF80400A088FFF74DF93D2E00F0F28253
:10249000E07C2860A08BCAF80400A088FFF742F90E
:1024A0003C2E00F0E782E07C2860E08BCAF8040054
:1024B000A088FFF737F93B2E00F0DC82E07C286033
:1024C000208CCAF80400A088FFF72CF93A2E00F0FF
:1024D000D182E07C2860608CCAF80400A088FFF7F5
:1024E00021F9392E00F0C682E07C2860A08CCAF861
:1024F0000400A088FFF716F9382E00F0BB82E07CBC
:102500002860E08CCAF80400A088FFF70BF9372E8A
:1025100000F0B082E07C2860208DCAF80400A0881A
:10252000FFF700F9362E00F0A582E07C2860608D70
:10253000CAF80400A088FFF7F5F8352E00F09A825B
:10254000E07C2860A08DCAF80400A088FFF7EAF8B4
:10255000342E00F08F82E07C2860E08DCAF8040001
:10256000A088FFF7DFF8332E00F08482E07C28603B
:10257000208ECAF80400A088FFF7D4F8322E00F0AD
:102580007982E07C2860608ECAF80400A088FFF79A
:10259000C9F8312E00F06E82E07C2860A08ECAF867
:1025A0000400A088FFF7BEF8302E00F06382002000
:1025B0000121A8F13007FFF73BF842F6CE70C0F6D4
:1025C0000000FFF761F80A200121FFF731F84FF60C
:1025D000D07038404FF4B471484348F21F51C5F2EF
:1025E000EB11A0FB0101012000EBD120FFF728F83F
:1025F000207D2860E08ECAF80000A088FFF792F8DE
:102600002F2E00F03782207D2860208FCAF800002E
:10261000A088FFF787F82E2E00F02C82207D2860FE
:10262000608FCAF80000A088FFF77CF82D2E00F01C
:102630002182207D2860A08FCAF80000A088FFF7C3
:1026400071F82C2E00F01682207D2860E08FCAF8E9
:102650000000A088FFF766F82B2E00F00B82207D8B
:102660002860B4F84000CAF80000A088FFF75AF8C4
:102670002A2E00F0FF81207D2860B4F84200CAF8BD
:102680000000A088FFF74EF8292E00F0F381207D8E
:102690002860B4F84400CAF80000A088FFF742F8A8
:1026A000282E00F0E781207D2860B4F84600CAF8A3
:1026B0000000A088FFF736F8272E00F0DB81207D90
:1026C0002860B4F84800CAF80000A088FFF72AF88C
:1026D000262E00F0CF81207D2860B4F84A00CAF889
:1026E0000000A088FFF71EF8252E00F0C381207D92
:1026F0002860B4F84C00CAF80000A088FFF712F870
:10270000242E00F0B781207D2860B4F84E00CAF86E
:102710000000A088FFF706F8232E00F0AB81207D93
:102720002860B4F85000CAF80000A088FEF7FAFF4D
:10273000222E00F09F81207D2860B4F85200CAF854
:102740000000A088FEF7EEFF212E00F09381207D8F
:102750002860B4F85400CAF80000A088FEF7E2FF31
:10276000202E00F08781A8F1200080B2FFF7CEF87C
:10277000607D2860E08ACAF80000A088FEF7D2FFDA
:102780001F2E00F07781607D2860208BCAF8000042
:10279000A088FEF7C7FF1E2E00F06C81607D2860C8
:1027A000608BCAF80000A088FEF7BCFF1D2E00F069
:1027B0006181607D2860A08BCAF80000A088FEF7C8
:1027C000B1FF1C2E00F05681607D2860E08BCAF8B6
:1027D0000000A088FEF7A6FF1B2E00F04B81607D55
:1027E0002860208CCAF80000A088FEF79BFF1A2EF4
:1027F00000F04081607D2860608CCAF80000A088ED
:10280000FEF790FF192E00F03581607D2860A08CC6
:10281000CAF80000A088FEF785FF182E00F02A8174
:10282000607D2860E08CCAF80000A088FEF77AFF7F
:10283000172E00F01F81607D2860208DCAF80000EF
:10284000A088FEF76FFF162E00F01481607D2860CF
:10285000608DCAF80000A088FEF764FF152E00F016
:102860000981607D2860A08DCAF80000A088FEF76D
:1028700059FF142E00F0FE80607D2860E08DCAF8BC
:102880000000A088FEF74EFF132E00F0F380607D5D
:102890002860208ECAF80000A088FEF743FF122EA1
:1028A00000F0E880607D2860608ECAF80000A08893
:1028B000FEF738FF112E00F0DD80607D2860A08ECD
:1028C000CAF80000A088FEF72DFF102E00F0D2807D
:1028D000A8F1100080B2FFF719F8A07B2860E08E05
:1028E000CAF80400A088FEF71DFF0F2E00F0C2807A
:1028F000A07B2860208FCAF80400A088FEF712FF92
:102900000E2E00F0B780A07B2860608FCAF804000C
:10291000A088FEF707FF0D2E00F0AC80A07B28609A
:10292000A08FCAF80400A088FEF7FCFE0C2E00F071
:10293000A180A07B2860E08FCAF80400A088FEF781
:10294000F1FE0B2E00F09680A07B2860B4F84000CA
:10295000CAF80400A088FEF7E5FE0A2E00F08A807F
:10296000A07B2860B4F84200CAF80400A088FEF7F3
:10297000D9FE092E7ED0A07B2860B4F84400CAF8A6
:102980000400A088FEF7CEFE082E73D0A07B28603E
:10299000B4F84600CAF80400A088FEF7C3FE072E6C
:1029A00068D0A07B2860B4F84800CAF80400A0886A
:1029B000FEF7B8FE062E5DD0A07B2860B4F84A0072
:1029C000CAF80400A088FEF7ADFE052E52D0A07B09
:1029D0002860B4F84C00CAF80400A088FEF7A2FEF4
:1029E000042E47D0A07B2860B4F84E00CAF804003B
:1029F000A088FEF797FE032E3CD0A07B2860B4F899
:102A00005000CAF80400A088FEF78CFE022E31D0D8
:102A1000A07B2860B4F85200CAF80400A088FEF732
:102A200081FE012E26D0A07B2860B4F85400CAF89D
:102A30000400A088FEF776FEE6B11FFA88F0FEF7E4
:102A400065FF08F1800800BF48464FF40071FDF7AC
:102A500039FE074648464FF48061FDF733FE0646CF
:102A600048464FF40061FDF72DFE002F18BF002EE1
:102A70007FF48EA901B0BDE8F08F00002DE9F04F82
:102A800083B004463420C4F200004EF65F2140F6C5
:102A90000C050160416000200121C4F201054FF0E6
:102AA000000AFEF7C5FD42F6D970C0F60000FEF739
:102AB000EBFD0A200121FEF7BBFD0020FEF7C0FD63
:102AC000C82060430190A5F10C0040F2000642F6D8
:102AD000E37B0090C2F20006C0F6000B00204FF02E
:102AE00000090290D846DDF800B04FF480615846E6
:102AF000FDF7E8FD044658464FF40061FDF7E2FD9E
:102B0000074658464FF48051C346FDF7DBFD002CC5
:102B100018BF002F00F0FB80002800F0F880B0798B
:102B200029680AF1010441EA800028603088A7B2D0
:102B3000FEF7E6FDB079296821EA800028600020D0
:102B40000021FEF775FD5846FEF79EFD0A20002184
:102B5000FEF76EFD1FFA89F0FEF772FDC82F14D143
:102B6000029F0020012101370024FEF761FD42F69B
:102B7000D970C0F60000FEF787FD0A200121FEF79C
:102B800057FDB8B20297FEF75BFD019949F00100CD
:102B900087B2B942C0F0BB80DDF804A0307A296862
:102BA00004F1010841EA8000286030881FFA88F4A7
:102BB000FEF7A6FD307A296821EA8000286000200F
:102BC0000021FEF735FD5846FEF75EFD0A20002184
:102BD000FEF72EFD3846FEF733FDC82C15D1029CBA
:102BE0000020012101344FF00008FEF721FD42F6DC
:102BF000D970C0F60000FEF747FD0A200121FEF75C
:102C000017FDA0B20294FEF71BFD49F0020087B247
:102C1000BA4551467BD3B07A296808F1010841EAE8
:102C20008000286030881FFA88F4FEF769FDB07ACA
:102C3000296821EA8000286000200021FEF7F8FCC6
:102C40005846FEF721FD0A200021FEF7F1FC384628
:102C5000FEF7F6FCC82C15D1029C0020012101349E
:102C60004FF00008FEF7E4FC42F6D970C0F6000011
:102C7000FEF70AFD0A200121FEF7DAFCA0B2029459
:102C8000FEF7DEFC49F0030087B2BA4551463ED359
:102C9000307B296808F1010A41EA80002860308809
:102CA0001FFA8AF4FEF72CFD307B296821EA8000A8
:102CB000286000200021FEF7BBFC5846FEF7E4FC2C
:102CC0000A200021FEF7B4FC3846FEF7B9FCC82CF8
:102CD00015D1029C0020012101344FF0000AFEF7BB
:102CE000A7FC42F6D970C0F60000FEF7CDFC0A2022
:102CF0000121FEF79DFCA0B20294FEF7A1FC09F1B0
:102D0000040901991FFA89F08142BFF4EBAE03B0C8
:102D1000BDE8F08F2DE9F04F83B004463420C4F2B3
:102D200000004EF65F2140F60C0501604160002076
:102D30000121C4F201054FF0000AFEF779FC42F6CA
:102D4000D970C0F60000FEF79FFC0A200121FEF7B3
:102D50006FFC0020FEF774FCC82060430190A5F1D1
:102D60000C0040F2000642F6E37B0090C2F200063F
:102D7000C0F6000B00204FF000090290D846DDF8A5
:102D800000B04FF400715846FDF79CFC04465846CD
:102D90004FF40061FDF796FC074658464FF480510A
:102DA000C346FDF78FFC002C18BF002F00F0FB80FE
:102DB000002800F0F880F07929680AF1010441EA5E
:102DC000800028603088A7B2FEF79AFCF079296865
:102DD00021EA8000286000200021FEF729FC5846E7
:102DE000FEF752FC0A200021FEF722FC1FFA89F0B0
:102DF000FEF726FCC82F14D1029F002001210137C5
:102E00000024FEF715FC42F6D970C0F60000FEF76C
:102E10003BFC0A200121FEF70BFCB8B20297FEF73B
:102E20000FFC019949F0010087B2B942C0F0BB80A4
:102E3000DDF804A0707A296804F1010841EA8000F5
:102E4000286030881FFA88F4FEF75AFC707A2968E7
:102E500021EA8000286000200021FEF7E9FB5846A7
:102E6000FEF712FC0A200021FEF7E2FB3846FEF7CF
:102E7000E7FBC82C15D1029C0020012101344FF042
:102E80000008FEF7D5FB42F6D970C0F60000FEF749
:102E9000FBFB0A200121FEF7CBFBA0B20294FEF758
:102EA000CFFB49F0020087B2BA4551467BD3F07A96
:102EB000296808F1010841EA8000286030881FFA7B
:102EC00088F4FEF71DFCF07A296821EA800028606A
:102ED00000200021FEF7ACFB5846FEF7D5FB0A2088
:102EE0000021FEF7A5FB3846FEF7AAFBC82C15D13A
:102EF000029C0020012101344FF00008FEF798FBEE
:102F000042F6D970C0F60000FEF7BEFB0A20012190
:102F1000FEF78EFBA0B20294FEF792FB49F003008D
:102F200087B2BA4551463ED3707B296808F1010A41
:102F300041EA8000286030881FFA8AF4FEF7E0FB3F
:102F4000707B296821EA8000286000200021FEF7BC
:102F50006FFB5846FEF798FB0A200021FEF768FB3E
:102F60003846FEF76DFBC82C15D1029C00200121CC
:102F700001344FF0000AFEF75BFB42F6D970C0F651
:102F80000000FEF781FB0A200121FEF751FBA0B2F1
:102F90000294FEF755FB09F1040901991FFA89F023
:102FA0008142BFF4EBAE03B0BDE8F08F000000003B
:102FB00000000000010203040607080901020203E1
:102FC0000405060708090A0B0C0D0E0F1010476FB9
:102FD000632062756F633A2000536F20766F6E67CF
:102FE0003A2000536F2078756E673A200000000089
:102FF00010300008000000208000000028010008B8
:103000009030000880000020B8060000440100084D
:1030100032003200E80301050406020A080904141C
:10302000101808282024F816E02EF8431059286EAE
:103030004083A89368A678B488C240CEF8D910E03F
:10304000B0E534E960EA34E9B0E510E0F8D988C2C7
:1030500078B468A6A8934083286E1059F843E02EF0
:10306000F816000000000000001000200040008062
:10307000000C0140000C0140000C0140000C01401C
:1030800001000000100000000024F4000000000017
:04000005080000ED02
:00000001FF
